{
  "contractName": "Dog",
  "abi": [
    {
      "constant": false,
      "inputs": [
        {
          "internalType": "uint256",
          "name": "_dogId",
          "type": "uint256"
        },
        {
          "internalType": "string",
          "name": "_buyerInfo",
          "type": "string"
        },
        {
          "internalType": "string",
          "name": "_dogInfo",
          "type": "string"
        },
        {
          "internalType": "string",
          "name": "_dogNose",
          "type": "string"
        }
      ],
      "name": "setInfo",
      "outputs": [],
      "payable": false,
      "stateMutability": "nonpayable",
      "type": "function"
    },
    {
      "constant": true,
      "inputs": [
        {
          "internalType": "uint256",
          "name": "_dogId",
          "type": "uint256"
        }
      ],
      "name": "getInfo",
      "outputs": [
        {
          "internalType": "string",
          "name": "buyerInfo",
          "type": "string"
        },
        {
          "internalType": "string",
          "name": "dogInfo",
          "type": "string"
        },
        {
          "internalType": "string",
          "name": "dogNose",
          "type": "string"
        }
      ],
      "payable": false,
      "stateMutability": "view",
      "type": "function"
    }
  ],
  "bytecode": "0x608060405234801561001057600080fd5b50610714806100206000396000f3fe608060405234801561001057600080fd5b50600436106100365760003560e01c80631a3cd59a1461003b57806389e78125146101ba575b600080fd5b6100676004803603602081101561005157600080fd5b81019080803590602001909291905050506103ad565b60405180806020018060200180602001848103845287818151815260200191508051906020019080838360005b838110156100af578082015181840152602081019050610094565b50505050905090810190601f1680156100dc5780820380516001836020036101000a031916815260200191505b50848103835286818151815260200191508051906020019080838360005b838110156101155780820151818401526020810190506100fa565b50505050905090810190601f1680156101425780820380516001836020036101000a031916815260200191505b50848103825285818151815260200191508051906020019080838360005b8381101561017b578082015181840152602081019050610160565b50505050905090810190601f1680156101a85780820380516001836020036101000a031916815260200191505b50965050505050505060405180910390f35b6103ab600480360360808110156101d057600080fd5b8101908080359060200190929190803590602001906401000000008111156101f757600080fd5b82018360208201111561020957600080fd5b8035906020019184600183028401116401000000008311171561022b57600080fd5b91908080601f016020809104026020016040519081016040528093929190818152602001838380828437600081840152601f19601f8201169050808301925050505050505091929192908035906020019064010000000081111561028e57600080fd5b8201836020820111156102a057600080fd5b803590602001918460018302840111640100000000831117156102c257600080fd5b91908080601f016020809104026020016040519081016040528093929190818152602001838380828437600081840152601f19601f8201169050808301925050505050505091929192908035906020019064010000000081111561032557600080fd5b82018360208201111561033757600080fd5b8035906020019184600183028401116401000000008311171561035957600080fd5b91908080601f016020809104026020016040519081016040528093929190818152602001838380828437600081840152601f19601f8201169050808301925050505050505091929192905050506105d2565b005b6060806060600080858152602001908152602001600020600001600080868152602001908152602001600020600101600080878152602001908152602001600020600201828054600181600116156101000203166002900480601f0160208091040260200160405190810160405280929190818152602001828054600181600116156101000203166002900480156104865780601f1061045b57610100808354040283529160200191610486565b820191906000526020600020905b81548152906001019060200180831161046957829003601f168201915b50505050509250818054600181600116156101000203166002900480601f0160208091040260200160405190810160405280929190818152602001828054600181600116156101000203166002900480156105225780601f106104f757610100808354040283529160200191610522565b820191906000526020600020905b81548152906001019060200180831161050557829003601f168201915b50505050509150808054600181600116156101000203166002900480601f0160208091040260200160405190810160405280929190818152602001828054600181600116156101000203166002900480156105be5780601f10610593576101008083540402835291602001916105be565b820191906000526020600020905b8154815290600101906020018083116105a157829003601f168201915b505050505090509250925092509193909250565b600080600086815260200190815260200160002090508381600001908051906020019061060092919061063a565b508281600101908051906020019061061992919061063a565b508181600201908051906020019061063292919061063a565b505050505050565b828054600181600116156101000203166002900490600052602060002090601f016020900481019282601f1061067b57805160ff19168380011785556106a9565b828001600101855582156106a9579182015b828111156106a857825182559160200191906001019061068d565b5b5090506106b691906106ba565b5090565b6106dc91905b808211156106d85760008160009055506001016106c0565b5090565b9056fea265627a7a723158208a40abaeb9c3f36bb7e09f25fd025eefd236d407d739ecdbb1006b4bb3e231a864736f6c63430005100032",
  "source": "// SPDX-License-Identifier: MIT\r\npragma solidity >=0.4.22 <0.8.0;\r\n\r\ncontract Dog {\r\n    struct Student {\r\n        string buyerInfo;\r\n        string dogInfo; \r\n        string dogNose; \r\n    }\r\n\r\n    mapping(uint256 => Student ) Info;\r\n\r\n    function setInfo ( uint _dogId, string  memory _buyerInfo, string  memory _dogInfo, string  memory _dogNose ) public{\r\n        Student storage student = Info[_dogId];\r\n        \r\n        student.buyerInfo = _buyerInfo;\r\n        student.dogInfo = _dogInfo;\r\n        student.dogNose = _dogNose;\r\n        \r\n    }\r\n\r\n    function getInfo(uint256 _dogId) public view returns (string  memory buyerInfo , string  memory dogInfo , string  memory dogNose ){\r\n        return( Info[_dogId].buyerInfo,  Info[_dogId].dogInfo,  Info[_dogId].dogNose );\r\n    }\r\n}",
  "sourcePath": "C:/Users/user/qwer/contracts/Dog.sol",
  "compiler": {
    "name": "solc",
    "version": "0.5.16+commit.9c3226ce.Emscripten.clang"
  },
  "schemaVersion": "3.3.1",
  "updatedAt": "2020-11-06T02:12:38.482Z",
  "networkType": "ethereum",
  "devdoc": {
    "methods": {}
  },
  "userdoc": {
    "methods": {}
  }
}